:1040000000000320E9610000A5610000A561000037
:10401000A5610000A5610000A5610000000000008E
:10402000000000000000000000000000A56100008A
:10403000A561000000000000A56100005D620000B5
:10404000A5610000A5610000A5610000A561000058
:10405000A5610000A5610000A5610000A561000048
:10406000A5610000A5610000A5610000A561000038
:10407000A5610000A5610000A5610000A561000028
:10408000A5610000A5610000A5610000A561000018
:10409000A5610000A5610000A5610000A561000008
:1040A000A5610000A5610000A5610000A5610000F8
:1040B000A5610000A5610000A5610000A5610000E8
:1040C000A5610000A5610000A5610000A5610000D8
:1040D000A5610000A5610000A5610000A5610000C8
:1040E000A5610000A5610000A5610000A5610000B8
:1040F00000000000A5610000A5610000A5610000AE
:10410000A5610000A5610000A5610000A561000097
:10411000A5610000A5610000A5610000A561000087
:10412000A5610000A5610000A5610000A561000077
:10413000A5610000A5610000A5610000A561000067
:10414000A5610000A5610000A5610000A561000057
:10415000A5610000A5610000A5610000A561000047
:10416000A5610000A5610000A5610000A561000037
:10417000A5610000A5610000000000000000000033
:10418000A9610000B9610000C9610000D9610000A7
:1041900000000000A5610000A5610000A56100000D
:1041A000A5610000A5610000A5610000A5610000F7
:1041B000A5610000A5610000A5610000A5610000E7
:1041C000A5610000A5610000A5610000A5610000D7
:1041D000A5610000A5610000A5610000A5610000C7
:1041E000A5610000A5610000A5610000A5610000B7
:1041F000A561000000000000A5610000A5610000AD
:10420000A5610000A5610000A5610000A561000096
:10421000A5610000A5610000A5610000A561000086
:10422000A5610000A5610000A5610000A561000076
:10423000A5610000A5610000A5610000A561000066
:10424000A5610000A5610000A5610000A561000056
:10425000A5610000A5610000A5610000A561000046
:10426000A561000010B5054C237833B9044B13B198
:104270000448AFF300800123237010BD50010020DB
:1042800000000000A090000008B5064B1BB10648D6
:104290000649AFF300800648036813B1054B03B12C
:1042A000984708BD00000000A090000054010020C5
:1042B0004C0100200000000010B504462368204691
:1042C000DB6898470028F9DA10BD08B503689B69D8
:1042D000984708BD08B5406803689B68984708BDC3
:1042E00008B540680368DB68984708BD08B54068B2
:1042F00003685B68984708BD08B5406803685B6958
:10430000984708BD406802F001BE4068D2B202F092
:10431000FEBD38B501600446086845680846114688
:104320001A46A847E079012806D9012102F0C8FA07
:10433000E079002102F020FB206803685B69984760
:10434000002384F8493084F84A30A4F85430A4F8A3
:104350005230A4F850306423A38038BD40F2334378
:10436000FFF7D7BFF8B5002504460F4680F849503F
:10437000206803689B68984778B194F849603F2E9D
:1043800001D90125F4E7731C206884F849300368DB
:10439000DB68984726447072EAE7B4F8503001337E
:1043A000A4F8503045B1B4F854300133A4F8543077
:1043B0004FF6FD733B8000E03D8094F84900F8BD66
:1043C00030B502464FF6FF73141AE4B28C4210D295
:1043D000547A6340082403F001055B081DB183F49F
:1043E000204383F00103013C14F0FF04F3D10132B8
:1043F000EAE71A0242EA132080B230BD38B590F8DD
:10440000495029460446FFF7DBFF631902125A722E
:104410006B1C54FA83F302355872E07984F84950E2
:1044200001280DD9012102F0A7FAA38843B178220F
:1044300053430C22B3FBF2F3A3F10103002BFBD196
:10444000214694F8492051F8090B03681B699847E5
:10445000E379012B07D9206803689B699847E079C5
:10446000002102F089FA206803685B6998470023FD
:1044700084F8493001F002FFB4F856301844B4F81B
:104480005230E0650133A4F8523038BD38B590F8A9
:1044900049500446A91E2544C9B2FFF791FFEA79A5
:1044A0002B7A43EA0223984207D0B4F85430013300
:1044B000A4F854304FF6FC700EE0A27A00232A498B
:1044C000595C91420AD00133082BF8D1B4F854302A
:1044D0000133A4F85430012000B238BD531E0F2B15
:1044E00040D8DFE803F0080831311D283F3F3F3F47
:1044F0003F3F3F3F0831217BE07A02F079FCA17B0E
:104500000546607B02F074FCC0F30F1000EB15153C
:1045100094F8623005F0FF05AB4223D20220DBE7BE
:10452000E07A217B02F064FC94F86230C0F307105B
:104530009842F3D816E0E07A217B02F059FC94F817
:104540006230C0B28342E8E7217BE07A02F050FC9F
:10455000A17B0546607B02F04BFC284494F8623056
:10456000C5B2D9E70020B7E7308A0000837A8279A4
:104570004272803B83720323C17280F849307047D6
:10458000F8B504460F46C07A217B02F031FCA17BCE
:104590000546607B02F02CFCC0F3C70210F0070E4A
:1045A0001CBF0132D2B24319E27203221FFA83FC0C
:1045B00084F8492028460023604594F8492022D0F9
:1045C000C0F30711012637F8115000F00F0145FA2A
:1045D00001F111F0010F05D0A1189E404D7A2E4334
:1045E0004E7205E0A5189E40697A21EA06066E72B1
:1045F0000133DBB2072B03D9013284F849200023B1
:10460000013080B2D8E7BEF1000F02D0013284F849
:10461000492094F8495002352046EDB2FFF7EEFEEE
:1046200068B2F8BDF8B504460E46C07A217B02F0A8
:10463000DFFBA17BC5B2607B02F0DAFBC0B24300B6
:10464000E372032384F849302A462B189A4294F8DF
:10465000493015DA11B2E71836F811E04FEA2E2E7C
:1046600087F809E05F1CFFB284F84970274436F8E8
:10467000111079720233013284F84930D2B2E4E782
:104680000233DDB22046FFF7B9FE68B2F8BD38B597
:1046900004460D46C07A217B02F0AAFB627B00F043
:1046A0000F03C0F30710FF2A35F810104FF0010276
:1046B00002FA03F30CBF0B4321EA030325F8103081
:1046C0000623204684F84930FFF798FE082038BDBD
:1046D00070B504460D46C07A217B02F089FBA17BB0
:1046E000C6B2607B02F084FB062325F81600204644
:1046F00084F84930FFF782FE082070BDF8B5044603
:104700000D46C07A217B02F073FBA17B0646607BDD
:1047100002F06EFB30441FFA80FE00233046072172
:10472000704520D0621800F00F06527A1A4112F03C
:10473000010FC0F307124FF0010735F812C003F163
:10474000010307FA06F6DBB214BF46EA0C062CEAB0
:104750000606072B25F8126002D90131C9B20023E1
:10476000013080B2DCE70623204684F84930FFF7A9
:1047700045FE0820F8BD2DE9F041077B90F80E803A
:10478000002506230446457380F84930064601EBB0
:104790004707EBB2434506F1020607D2B07BF17B37
:1047A00002F026FB27F815000135F2E794F849508E
:1047B00002352046EDB2FFF721FE68B2BDE8F08178
:1047C000F7B50446006884F862200368E1649B68DA
:1047D0000D461646984748B194F84A30984207D09B
:1047E00084F84A0001F04AFD0530A065002065E02C
:1047F00001F044FDA36DC01A0028F7DB002384F804
:104800004A3020460DF10601FFF7ACFDBDF8063039
:10481000ABB9627AA3799A42E8D12046FFF736FE17
:1048200000280746ADF806000DD006DD2046F9B297
:10483000FFF79CFE2046FFF7E1FDBDF80630A4F827
:104840006030FF203AE001F019FDB4F85630A4F8CA
:1048500060701844A37AE065013B0F2B2DD8DFE888
:1048600003F008080E0E141A2C2C2C2C2C2C2C2C9B
:104870002026204629463246FFF782FE1EE02046CB
:1048800029463246FFF7CEFE18E02046294632463A
:10489000FFF7FDFE12E0204629463246FFF718FFDB
:1048A0000CE0204629463246FFF728FF06E0204666
:1048B00029463246FFF75FFF00E0012040B203B017
:1048C000F0BD000038B54FF4FA3280498048814C81
:1048D000814DFFF743FD01F0D1FC804B643018603F
:1048E00001210D2002F048F80121242001F0E8FF09
:1048F0007B4801F0AFFB204601F0E9FA284601F0C1
:10490000E6FA784B4FF480525A601620032101F0EA
:10491000D7FF0720012101F0D3FF1D20032101F063
:10492000CFFF0120014601F0CBFF1020032101F051
:10493000C7FF1120032101F0C3FF1220032101F062
:10494000BFFF0121062002F017F80C2001F072FDD4
:104950000C2001F093FD1920032101F0B1FF1A2072
:10496000032101F0ADFF1820032101F0A9FF082069
:10497000012101F0A5FF0920012101F0A1FF042080
:10498000012101F09DFF0C20012101F099FF312050
:10499000032101F095FF3220032101F091FF262031
:1049A000032101F08DFF2720032101F089FF292039
:1049B000032101F085FF2820032101F081FF2A2037
:1049C000032101F07DFF2B20032101F079FF2E2030
:1049D000012101F075FF20460021012201F09DFA1E
:1049E000012120460A4601F098FA204602210122C0
:1049F00001F093FA20460321012201F08EFA2046AD
:104A00000421012201F089FA20460521012201F04A
:104A100084FA20460621012201F07FFA2046072170
:104A2000012201F07AFA20460821012201F075FAEC
:104A300020460921012201F070FA20460A210122B4
:104A400001F06BFA20460B21012201F066FA2046A4
:104A50000C21012201F061FA20460D21012201F012
:104A60005CFA20460E21012201F057FA20460F2160
:104A7000012201F052FA28460021012201F04DFAEC
:104A8000012128460A4601F048FA2846022101225F
:104A900001F043FA28460321012201F03EFA28469C
:104AA0000421012201F039FA28460521012201F0F2
:104AB00034FA28460621012201F02FFA2846072160
:104AC0000122BDE8384001F028BA00BFB002002042
:104AD0004802002014020020F0020020C40200203E
:104AE000600400208801002038B5864C864A23885F
:104AF00003F001011170854AC3F340011170844A2B
:104B0000C3F380011170834AC3F3C0011170824A5C
:104B10001268012A03D1814AC3F300111170804A3F
:104B2000C3F3C01111707F4AC3F3002111707E4A94
:104B3000C3F3402111707D4A1268012A08D1774AD7
:104B4000127812B143F0100301E023F01003238028
:104B500077496C4B2288012008707649097811B199
:104B600042F0600203E022F0400242F020021A808C
:104B70006288714B634D02F001021A706F4BA28A7A
:104B80001A606F4BE28A1A606E4B228B1A606E4B72
:104B9000628B1A606D4BA28B1A606D4BE28B1A60B0
:104BA0006C4B228C1A606C4B628C1A606B4BA28C23
:104BB0001A606B4BE28C1A606A4B228D1A606A4B4A
:104BC000628D1A60352001F079FCA087362001F053
:104BD00075FC664BB4F806211B68A4F80431644BDD
:104BE000E0871A60634B644A1B68A4F80831A38904
:104BF00003F001011170614AC3F340011170604A72
:104C0000C3F3800111705F4AC3F3C00111705E4AA3
:104C1000127812B143F0100301E023F01003AB81CE
:104C20005A4B1B781BB1A38943F0200302E0A389F0
:104C300023F02003A381564B1B781BB1A38943F0BB
:104C4000400302E0A38923F04003A381514B1B786A
:104C50001BB1A38943F0800302E0A38923F0800302
:104C6000A3814D4B1B781BB1A38943F4807302E0F1
:104C7000A38923F48073A381484B1B781BB1A389BC
:104C800043F4007302E0A38923F40073A381444B2F
:104C90001B781BB1A38943F4806302E0A38923F44A
:104CA0008063A3813F4B1B781BB1A38943F400634E
:104CB00002E0A38923F40063A3813B4B1B781BB163
:104CC000A38943F4805302E0A38923F48053A38192
:104CD000364B1B781BB1A38943F4005302E0A38930
:104CE00023F40053A381324BB3F85020A4F8502092
:104CF000B3F85220B3F85430A4F85220A4F854303A
:104D000038BD00BF12030020DF0100200F03002088
:104D10000C0300207C01002008020020C2010020BA
:104D2000B9020020C8010020D20200204002002069
:104D3000F2010020C8020020C0010020BC020020B7
:104D4000000200200C020020F4010020C401002019
:104D5000EC0100207001002078010020CC0100202F
:104D6000EC020020D8020020340200208401002040
:104D7000D4010020E00100206C0100206D01002022
:104D8000DD010020E9010020FB010020AC02002031
:104D9000DA010020E80100207E010020C10200208D
:104DA000E4020020100300200D0300200402002074
:104DB00048020020F7B5B048B049B14C8522FFF752
:104DC000FFFCB04B0428187007DD01F057FA3230B1
:104DD000206001210D2001F0CFFD01F04FFA236882
:104DE000984203D90D20002101F0C6FDA64CA74D25
:104DF000A74EFFF779FE204600F0C4FFA54BE26AFC
:104E00001A60002400F016FC00F0AEFA00F022FA5E
:104E100000F074FB00F0E0FD00F0BAFE00F07EFA56
:104E200000F04CFC00F03AFC00F03EFE00F010FAFE
:104E300000F0A0FC00F062FE00F068FB00F0B6FE9F
:104E400000F0D4FC00F0BEFD00F08EFC924B00930D
:104E50008DF8054002AB8DF8044013E906008F4839
:104E600001F020F92146242001F086FD40218B48E5
:104E700001F046F92420012101F07EFD2146242085
:104E800001F07AFD2146854801F03AF924200121FC
:104E900001F072FD2146242001F06EFD21467F487D
:104EA00001F02EF901212870242001F065FD214632
:104EB000242001F061FD4421784801F021F92420EB
:104EC000012101F059FD2146242001F055FD214624
:104ED000724801F015F92420012101F04DFD214611
:104EE000242001F049FD21466C4801F009F9012117
:104EF0003070242001F040FD2146242001F03CFDCB
:104F00004821664801F0FCF82420012101F034FD1D
:104F10002146242001F030FD2146604801F0F0F8E0
:104F20002420012101F028FD2146242001F024FD48
:104F300021465A485A4C01F0E3F801212070242000
:104F400001F01AFD554801F0CBF8262001F042FD92
:104F5000431E58425841534B1870272001F03AFD28
:104F6000421E5042504B50411870282001F032FD33
:104F7000411E48424D4B48411870292001F02AFD3E
:104F8000471E78424A4B784118702B2001F022FDD1
:104F9000B0F1010EDEF10000464B50EB0E00187030
:104FA0002A2001F017FDB0F1010C434B3278DCF1FF
:104FB000000050EB0C001870404B4148C2F3400118
:104FC0001970404BC2F380011970237803F001017E
:104FD00001703D48C2F3801404703C48C2F3401293
:104FE00002703B4AC3F3400414703A4AC3F380048E
:104FF0001470394AC3F3C003044613702E460820C8
:1050000001B1012101F0B8FC2178092001B1012191
:10501000324F01F0B1FC3B68802B4FF004000CBF15
:105020000121002101F0A8FC2D4B2E481A78012106
:1050300002B10A4600F0B0FF2B4B2A481A78022131
:1050400002B1012200F0A8FF284B26481A78062159
:1050500002B1012200F0A0FF254B22481A78072157
:1050600002B1012200F098FF224B23481978002951
:1050700044D00021012242E0480200201203002017
:10508000C4020020DC02002088010020E50200208C
:105090006F010020D40200200087930360040020E9
:1050A000E7020020E7010020C1010020C00200202B
:1050B000D0010020F801002010020020E6010020AD
:1050C0003C020020F0010020D8010020DE01002079
:1050D0006E010020D0020020F90100208401002090
:1050E00074010020F0020020800100204402002012
:1050F00045020020E6020020140200200A4600F0CB
:105100004BFF294B29481A781C461F2102B1012266
:1051100000F042FF22782548202102B1012200F050
:105120003BFF234B2348197811B10021012200E0F5
:105130000A4600F031FF204B1E481A78042102B1C4
:10514000012200F029FF1D4B1D681D4B45F4405501
:105150002E2000211C6801F00FFCC5F3072119481F
:1051600000F0CEFFE9B2174800F0CAFF2E2001215F
:1051700001F002FC44F430442E20002101F0FCFB3D
:10518000C4F307210F4800F0BBFFE1B20D4800F067
:10519000B7FF2E20012101F0EFFB33780A4A3B6074
:1051A000136003B0F0BD00BF7D0100201402002099
:1051B000F1010020F00200203D0200203802002012
:1051C000E00200206004002030020020174B184A43
:1051D000184870B51A60184A5A60184E184B0124C6
:1051E00000254FF47A729C71DD71A3F85620314688
:1051F0002B462C2200F025FE314623462C22114856
:1052000000F01FFE10489FED110A04754FF48063F3
:1052100043604FF08143036180F82450002322460D
:105220003621BDE87040036200F0D0BDB00200201E
:10523000108A000014020020A00400206004002056
:1052400048020020F0020020880100200AD7233CF9
:1052500070470000264A38B5264B274C11781B684A
:105260002360154609BB254A1268012A02DD244A3B
:105270001278D2B9234A1168234A12688A1A9342D3
:1052800008DB224B1A68224B1B681A44236893429E
:105290000BDD05E0002001F09DFB0128F1D118E0B5
:1052A000012001F097FB012813D02B78A3B9194BEB
:1052B0001B788BB1124B1B7873B1104B1B68022B00
:1052C0000AD1154B1A68104B1B68134422689A4286
:1052D00002DD0220012106E0002001F07BFB012815
:1052E000F7D002200021BDE8384001F045BB00BFE7
:1052F000B9020020D4020020200400203402002043
:10530000C8010020CC02002000020020C4010020BF
:10531000BC020020BA020020D802002008B50E4BC3
:105320001B78BBB90D4B1B78A3B90D4B1B788BB108
:105330000C4B1B7823B90120BDE8084001F04ABBA3
:105340001A2001F047FB0128F5D0192001F042FB9B
:105350000028F0D008BD00BF0F030020BB020020D2
:105360001C040020E50100205A4B187870B5002875
:1053700039D1594E594C3378002B5AD001F02AFBC1
:10538000002856D1102001F025FB012851D1112011
:1053900001F020FB01284CD1122001F01BFB00285A
:1053A00047D14F4B1B78002B43D14E4B1B78002B22
:1053B0003FD04D4B1B78002B3BD1312001F00AFB35
:1053C000002836D1322001F005FB002831D1474BAF
:1053D0001B78002B2DD1464B1978002929D101F0DB
:1053E000CBFA012042E0434B1B78002B54D0424BB8
:1053F0001B78002B50D0002001F0ECFA00284BD194
:10540000384B1B78002B47D0374B1B78002B43D1F0
:10541000312001F0DFFA00283ED1322001F0DAFA23
:10542000002839D1324B1978B1BB01F0A5FA01201F
:105430004BE0122001F0CEFA012802D02A4B1D7851
:1054400055B10120002101F097FA0020012101F05F
:1054500093FA012323700CE0312001F0BBFA0128FC
:10546000EFD00120294601F087FA2846014601F0D5
:1054700083FA23783BB1102001F0ACFA012802D165
:105480000023337070BD102001F0A4FA18B9012375
:105490003370207070BD70BD122001F09BFA01289E
:1054A00002D0114B1C7834B10120002101F064FAC4
:1054B000002001210AE0312001F08CFA0128F3D00C
:1054C0000120214601F058FA20460146BDE870400F
:1054D00001F052BAFA010020250400202404002023
:1054E000DB010020D1020020F3010020D2020020C5
:1054F000DD0100206C010020DE010020024B342081
:10550000196801F071B800BF0C02002038B5364BA5
:10551000364A1B681360364A1178364A71B93649E3
:10552000097859B93549097841B93549097829B90E
:105530003449097811B93449097809B9002100E0E2
:105540000121117010783149314A20B91068984210
:1055500001DD012000E0002012680870934204DBA6
:10556000284A00231370254A13702A4C2A4D2378A9
:105570007BB100F083FE294B1B68C01A2B68984250
:1055800007D901232370264B1A7812B100221A7012
:105590002270244B1B682B60234B1A781D4652B196
:1055A000237843B91B4B01241C7000F067FE1B4B92
:1055B00018601B4B1C702B786BB9194B1A781B4B5E
:1055C00032B91A6812B11A4A12680AB9012203E004
:1055D0001B68002B03DD0022074B1A7038BD144BEB
:1055E0001B68002BF7DC38BDD402002034040020F7
:1055F000D2020020D10200202D040020BB02002096
:10560000E802002075010020F2010020F3010020D3
:10561000CC0200202E0400203004002028040020AA
:105620002C04002000000020B9020020C40100204A
:10563000EC010020F8B5154B154E1A78154C1F4695
:1056400052B1337843B9142001F0C4F9012805465A
:1056500002D1114B1B7863B9337883B13B7873B9AE
:10566000142001F0B7F90128054608D10A4B1B7830
:105670002BB10720294601F07FF92570F8BD0720DE
:10568000002101F079F900232370F8BDDF0100202B
:10569000B8020020C8020020F2010020054B1A7851
:1056A000054B0AB9012202E01A780AB100221A70E9
:1056B000704700BF380400200E030020254B1B78E4
:1056C00010B5254C0BB101232370237893B1234BE4
:1056D0001B7883B3102001F07DF960B3112001F035
:1056E00079F940B3132001F075F920B3012001F0DE
:1056F00071F900B323782BB9002001F06BF9012870
:1057000026D11FE0154B1B782BB1132001F062F955
:105710000128F1D10AE0102001F05CF90128EBD159
:10572000112001F057F90128E6D1EEE701F052F916
:105730000128E1D106E00A4B00221A70094B012230
:105740001A70D7E7074B00221A70054B01221A7016
:1057500010BD00BF7F010020FC010020FD010020E2
:10576000BA020020DD020020014B01221A607047BE
:10577000E001002038B5194B194C1B7853B11020AB
:1057800001F028F9012805D1164B1B7813B12378B5
:1057900003B920702378144D1BB1102001F01AF9C1
:1057A00088B12B7823B1102001F014F901280DD015
:1057B000122001F00FF901280BD0002001F00AF9A6
:1057C000012809D105E001232B70EAE700232370AB
:1057D000EEE7002323702B7038BD00BF0F030020BD
:1057E000DB0100201C040020DC010020474B1A785C
:1057F000474B10B502B101221A70464B1A78464B3E
:1058000002B101221A70454B1A78454B02B10122B0
:105810001A70444B44491B78444A03B10123137066
:105820000B70434B1A78434B02B101221A70424B62
:105830001A78424B02B101221A70414B1A78414B3F
:1058400012B9414A127802B101221A703F4B1A78FC
:105850003F4B02B101221A703E4B3F491B783F4A31
:1058600003B1012313700B703D4B1A783D4B02B10D
:1058700001221A703C4B1A783C4B02B101221A707B
:105880003B4B3C4C1B783C483C493D4A23B13D4B8B
:105890001B780BB1012300E000230B701370237001
:1058A0000370394B39491B78394A03B101230B7016
:1058B0001370384B38491B78384A03B101231370F1
:1058C0000B70374B1A78374B02B101221A70364BE6
:1058D0001A78364B02B1012236201A7000F0EEFD24
:1058E000334C344B344A18602378002B08BF1846D9
:1058F0001060352000F0E2FD304B314A186023780B
:10590000002B08BF1846106010BD00BF6E010020BC
:10591000B8020020F901002004020020D00200207B
:105920000D030020DE010020FD010020E801002021
:105930006D0100203D0200206C010020F1010020DB
:10594000C0020020E4010020D0010020F20100206C
:105950007D010020D8010020D9010020DA010020BB
:10596000DD010020E60200203C020020AC02002005
:10597000E7010020FA010020FB0100204402002082
:1059800045020020C1010020F80100207401002020
:10599000E4020020100200208001002010030020FB
:1059A000E60100207E010020F0010020C10200205D
:1059B000FC0100203C040020E00200204004002004
:1059C00038020020034B19780C2001B1012100F0AE
:1059D000D3BF00BF7E0100202A4AF8B52A4B1268C7
:1059E0001A602A4A12781E4672B1294C2578274639
:1059F00055B9192000F0EEFF012803D01A2000F05D
:105A0000E9FF58BB00233B70224B1B78B3B1192030
:105A100000F0E0FF0128204C05D11A2000F0DAFF49
:105A200008B9237853B9192000F0D4FF01281AD1FE
:105A30001A2000F0CFFFB0B92378A3B9174B1B7819
:105A4000F3B1192000F0C6FF01280546124C15D10C
:105A50001A2000F0BFFF88B92570F8BD104B1D70EB
:105A600001232370D0E70F4B32681B689A4202DB98
:105A70000B4B00221A7000232370DFE700232370F2
:105A8000F8BD00BFD402002044040020FC01002027
:105A900048040020DD0200201C040020BA0200207F
:105AA000E8020020CC02002038B50E4B1B78C3B1B1
:105AB0000D4B1A781D46A2B900F0E0FB0B4A0C4BC7
:105AC00011681B68411A99420A4B06D30A4C1060B0
:105AD000217881F00101217019701B780BB101232D
:105AE0002B7038BD0E0300207F0100204C040020E5
:105AF000040000204A040020490400201A4B1B4ADD
:105B00001B6810B51A4C13602278A2B9194A107894
:105B1000114670B9184A12786AB1184A18481268C2
:105B20000068801A834204DB1648006802449342EE
:105B300001DD01230B70144B1B78312053B100F0B1
:105B400049FF08B901232370312000F043FF0128E9
:105B500009D106E000F03EFF012802D00B4B1B7874
:105B60000BB10023237010BDD40200205404002088
:105B700050040020750100201C040020F4010020C6
:105B8000EC010020C4010020B9020020DD02002049
:105B900008B5182000F01EFF034B012816BF002295
:105BA00018701A7008BD00BFE5010020024B1A688A
:105BB000024B1A60704700BF70010020CC02002029
:105BC00008B510EE100A02F095FB0022124B02F00D
:105BD00033FA02460B4600200F4902F009FD02F09D
:105BE000EFFD02F087FB02460B4600200A4902F057
:105BF00021FA02460B4602F01FFA02F0E1FD07EE21
:105C0000900AB7EE000AF4EEC07AF1EE10FAD8BFAF
:105C1000B0EE670A08BD00BF0000F03F00000000C2
:105C2000F8B5077B2DED048B064607EE901A47B3B7
:105C3000037D33B3F8EEE76A90ED047AF4EEC76AB9
:105C4000F1EE10FA07D54A0007EE902AF8EEE77A4F
:105C500077EEC77A13E0436805EE903AB8EEE56A4E
:105C600036EE476AF4EEC66AF1EE10FA09DDC3EBD0
:105C7000410207EE902AF8EEE77A77EE877AFDEE9A
:105C8000E77AF8EEE77AD6ED068AD6ED089A37EE8F
:105C9000E88A19EE900AB5EEC08AF1EE10FAD6BF86
:105CA000B1EE489ABCEEC89ABCEEC99A02F022FB4B
:105CB00078EE699A044619EE900A0D4602F01AFB36
:105CC00027A3D3E9002302F069FB02460B462046D6
:105CD000294602F0B1F902F073FD07EE900A306236
:105CE00097B1F5EEC07AF1EE10FA96ED047AD8BFCE
:105CF000F1EE677AF4EEC77AF1EE10FA54BF0023A2
:105D0000012386F824301BBBD6ED027AB8EE490A8F
:105D1000304620EE270AFFF753FFE8EE008AF5EE43
:105D2000C08AF1EE10FAC6ED068A02D50023B361EF
:105D30000CE07368013B05EE903AF8EEE57AF4EE7C
:105D4000E78AF1EE10FAC8BFC6ED067AD6ED068AEC
:105D5000FDEEE88A18EE900ABDEC048BF8BD00BF9A
:105D60009A9999999999D93FC36A10B504460363E2
:105D7000FFF756FF236BE062C01A18BF012084F8BA
:105D8000340010BD10B50446006800F097FBA06217
:105D900001462046BDE81040FFF7E6BFF7EE007A67
:105DA000B4EEE70AF1EE10FA09DCB5EE400ADFEDD9
:105DB000067AF1EE10FA48BFB0EE670A01E0B0EEE5
:105DC000670A80ED020A70470000000070B52DEDF3
:105DD000028B05460C46084600211646B0EE408A66
:105DE00000F06EFD2046002100F0C6FDB0EE480A2E
:105DF000BDEC028B2C602E732846BDE87040FFF787
:105E0000CDBF70B5467906F00706044676000D460C
:105E100046F040060079002100F0AEFD31462068D2
:105E200000F06EF929462544206800F069F9A97947
:105E3000206800F065F920790121BDE8704000F08C
:105E40009BBD10B54371FF23027183711822C3718A
:105E500000230160037243728372C372037343733E
:105E60008373C373027442748374C374037543757C
:105E70008375C375037643768376C37610BD152983
:105E800001D8FFF7BEBF704738B5457905F0070563
:105E900004466D0045F040050079002100F06CFDDE
:105EA0002946206800F02CF92068002100F028F92C
:105EB0000025631920689979013500F021F9162D24
:105EC000F7D120790121BDE8384000F055BD10B56B
:105ED0000446006800F0BEF82079012100F0F0FCD3
:105EE0002079012100F048FD2079002100F044FDD7
:105EF0002068402100F004F920680A2100F000F930
:105F00002068182100F0FCF82079012100F034FD10
:105F10002046BDE81040FFF7B7BF0F292DE9F0413B
:105F20000B460446154635D8072905D9A1F10803C3
:105F3000DBB20D26012101E00C260021012D03D04A
:105F40000BD3022D26D108E0621805FA03F39079ED
:105F500020EA03039371204618E001279F4063184D
:105F60005FFA87F89A7948EA02029A712046FFF7A9
:105F700086FFA219022D93790BBF48EA030823EA92
:105F8000070782F80680977120463146BDE8F04148
:105F9000FFF775BFBDE8F0810F2970B50B4633D808
:105FA000072906D9A1F10803DBB215260D2101242A
:105FB00002E014260C2100240444A4791C4114F0AE
:105FC000010F4FF001040ED185192AB9AA7904FAFC
:105FD00003F322EA030303E0AA7904FA03F3134369
:105FE000AB71314607E045184AB9AA7904FA03F3C0
:105FF00022EA0303AB71BDE87040FFF740BFAA7906
:1060000004FA03F31343F5E770BD437A23B98372AF
:10601000C372C3600123437270471FB5044604ABCB
:10602000006803E9060000F0C6FD9DF80D30E17937
:10603000227A00932068002300F0B6FE20689DF8C5
:106040000C10029A00F088FD206804B0BDE81040F2
:1060500000F0A7BD70B50446104DFFF7D6FF2079BC
:10606000182606FB005393F9081000F0CBFCA0792A
:1060700006FB005393F9081000F0C4FC607906FB9E
:10608000005595F9081000F0BDFC054B204693E83B
:106090000600BDE87040FFF7C0BF00BF388A0000AF
:1060A0005804002082B08DE80600827A6B467AB1EF
:1060B000910708D5EFF31082D2F1010238BF002218
:1060C000C27272B604E0D20702D5044A8189D16057
:1060D00093E8060002B0FFF7A0BF00BF0028004011
:1060E000837A53B19A0703D5C37A33B162B6704746
:1060F000DB0702D5014B82891A61704700280040F6
:10610000006800F063BD0000094B0A4A1A600022D3
:106110005A711A71084B09491960252119712321F7
:106120005A729971DA712221032259711A727047D9
:106130005804002000093D00600400208004002075
:1061400008B50D490D4800F005FD0D490D4800F05A
:1061500001FD0D490D4800F0FDFC0D490D4800F012
:10616000F9FC4FF086410C4800F0F4FC0B480C4958
:10617000BDE8084000F0EEBC003000407404002090
:106180000034004078040020002001417C040020FD
:10619000004001417004002080040020840400209D
:1061A00000040043FEE7000008B5024B1B6803B182
:1061B000984708BD8804002008B5024B1B6803B14E
:1061C000984708BD8804002008B5024B1B6803B13E
:1061D000984708BD8804002008B5024B1B6803B12E
:1061E000984708BD88040020164A08B5164B93420C
:1061F00010460FD1154BD3F8882042F47002C3F833
:106200008820BFF34F8FBFF36F8F00F059F800F075
:1062100051FC0CE00E4A9A42ECD0043A834202F15F
:10622000040105D2526843F8042B0A46F6E7FEE75C
:106230009942DFD0074B084A9342DBD2002243F851
:10624000042BF8E7500100200000002000ED00E0E2
:10625000A490000050010020980A002008B500F02A
:106260002CF818B9BDE8084000F01EB808BD0000C1
:10627000014B1860704700BF88040020014B18686C
:10628000704700BF8C04002070B5044640B1054B38
:106290001D681E4600F010F833685B1BA342F9D35B
:1062A00070BD00BF8C040020024B1A6801321A60D6
:1062B00000F02CBC8C0400207047002070470000C8
:1062C000544B1A8892B21A80534B42F20E029A82B1
:1062D000DA68D007FCD5514B1A7842F001021A70E7
:1062E0005A68D107FCD44D4A40F20511D1625A6870
:1062F0009206FCD4494B4FF482721A62474B5B689A
:1063000013F00402FAD1464B1A77464A9A6293F880
:106310002C2002F0100202F0FF01002AF7D1404BBE
:1063200083F820103E4B93F82C205007FAD41A7FA4
:1063300042F002021A7793F82C10394A8907FAD4EE
:10634000536A5362364B93F82C201007FAD49822E4
:1063500083F820201A69D105FCD5304B324A5A63A4
:106360005A681206FCD42D4B4522C3F88420A3F5AD
:1063700040633B225A631946CA6B294B5007FBD432
:106380004FF400629A63022283F83020244B1A6C87
:106390009207FBD51A6CD007F8D5204A4521C2F8E0
:1063A000881031229A641E4B1A6D5107FBD44FF4AA
:1063B0000062DA64022283F84420194B5A6D920776
:1063C000FBD55B6DD807F8D5144B40F206325A6204
:1063D0005A681107FCD4114A4FF4427191625A680D
:1063E000D206FCD40D4B114A1A630C4A53685B0663
:1063F000FBD440F207331362536813F00401FBD15E
:106400000B4B01225A7103F580539A6961F38202A2
:106410009A6170470040004100140040001C004099
:1064200000100040000001040601180006130400DB
:10643000000800400E4B0F4A18600F4B0A28D988FD
:1064400004DD6FF3C401D9800C230BE0082805DDBF
:10645000022060F3C401D9800A2303E041F018014F
:10646000D98008231360044B1B6B1B07FBD47047B8
:10647000440000203C000020001C0043014B186039
:10648000704700BF400000200B4B1A6BD206FBD4B4
:10649000013804280AD8DFE800F0030609090300E0
:1064A0001A7A022104E01A7A042101E01A7A0321FF
:1064B00061F303021A727047001C0043052810B5EF
:1064C000044698BF00F133042046012100F09AFAF7
:1064D000A4F13303012B35D8B4F1330318BF0123E2
:1064E0003B4AD15C51B30021D1543A4A91688807A4
:1064F000FBD4916811F00100F7D1117860F34101EC
:106500001170344A91688907FBD4926812F0010136
:10651000F7D104335B0003F1864303F510539A88E7
:1065200061F341029A802B4B9A689207FBD49A68D8
:10653000D007F8D41A7842F002021A70254B9B68F3
:106540009907FBD4244B1A6B5207FBD4234A18211A
:1065500001FB04249A88217C61F304029A801E4A7C
:10656000136B9807FBD4138843F002031380116B5D
:10657000194B8907FBD41A7D42F002021A750122D9
:1065800083F82E201A7D42F002021A75124991F802
:106590002E30DA07FAD5B1F8400080B20A6B0E4B04
:1065A00012F00204FAD11A8864F341021A800A4BED
:1065B0001B6B9B07FBD40A4B0A4A1B681268934269
:1065C00005D002D99B1AD84010BDD31A984010BDEF
:1065D0009D04002000240043001C0043388A000072
:1065E0003C00002044000020914B18222DE9F0418E
:1065F00002FB003286B0D368B2F812809E070546CF
:106600000C467FD5A0F13303012B00F25381894B57
:106610001B680C2B06D08BBF0C3BC3F10C0321FA7B
:1066200003F49C40B5F1330628464FF0010118BF32
:10663000012600F0E7F9804B9A5D002A42D1012241
:106640009A557E4B9A689107FBD49A6812F0010123
:10665000F7D11A7861F341021A70784B9A68920761
:10666000FBD49B68DB07F8D4331D5B0003F1864342
:1066700003F510539A8842F002029A806F4B9A6891
:106680009707FBD49A68D507F8D41A7842F002022B
:106690001A7056B9694BDA79D007FBD59A68510759
:1066A000FCD4664BA2B21A8209E0644BDA799207F5
:1066B000FBD59A681707FCD4604BA2B25A820A2015
:1066C000FFF7E2FD331D5B0003F1864303F5105332
:1066D0009B889D07F6D556B9584BDA79D007FBD57C
:1066E0009A685107FCD4554BA4B21C82E2E0534B8C
:1066F000DA799207FBD59A681707FCD44F4BA4B2FE
:106700005C82D7E01E0740F1BE80D9064CBF06214F
:10671000052100F077F948F30725494BDFF82CC134
:106720005A5D5FFA88F8002A73D1464F01225A5504
:106730000FCF6E460FC697E8030006AA86E803004F
:1067400002EB8503402153F8182C3F4B2032042DD7
:1067500043F822105CF825301A6842F001021A60F2
:1067600026D91A6912F00101FBD11A6861F34102BE
:106770001A601A699207FCD440F204621A6002227D
:106780001A731A695706FCD403EB0802E4B21477B3
:106790001A695606FCD4FF22DA761A699506FCD4EB
:1067A0001A6842F002021A601A699407FCD481E068
:1067B0009A6812F00101FBD11A6861F341021A6074
:1067C0009A689007FCD44FF4C0621A600222DA6320
:1067D0009A685106FCD49A68D205FCD49A68970549
:1067E000F9D408F1100803EB880254609A68D605C2
:1067F000FCD49A689505F9D4FF221A649A681406A5
:10680000FCD41A6842F002021A609A689007FCD41D
:1068100050E0042D5CF825301AD903EB0802E4B2ED
:1068200014771A695106FCD41A691206F9D441E0AA
:10683000388A0000400000209D040020002400430E
:1068400090040020A88F0000001C004008000020D9
:106850009A685707FCD49A68D605FCD49A689505BF
:10686000F9D408F11C0843F828409A68D005FCD4F4
:106870009A689105F9D41A7942F002021A719A685D
:106880005207FCD416E0012100F01AF80B4B1B68EC
:10689000082B05D08BBF083BC3F10803DC409C40AC
:1068A0007F2C284694BF0021012106B0BDE8F041AD
:1068B00000F062B806B0BDE8F08100BF40000020E3
:1068C0002C4B182210B502FB003494F90840013417
:1068D0004ED003294CD8DFE801F0023A1427504388
:1068E0001A181B565268DB0103F1824303F500437B
:1068F0009918022081F84000012101FA02F25A6041
:1069000010BD50431A181B565268DB0103F1824335
:1069100003F500439918062081F84000012101FA8F
:1069200002F25A609A6110BD50431A181B56526801
:10693000DB0103F1824303F500439918062081F837
:106940004000012101FA02F25A605A6110BD504321
:106950001A181B565268DB0103F1824303F500430A
:106960009918022081F84000012101FA02F29A6090
:1069700010BD00BF388A0000182370B5134C58436F
:10698000231893F9082001321ED020565D68C001FB
:1069900000F1824303F5004301229C68AA40224291
:1069A00009D12B440E1C93F8404018BF012666F312
:1069B000820483F8404011B9054B1A5070BD00F1B4
:1069C000824303F500439A6170BD00BF388A00001E
:1069D0001480004118220A4B50431A1892F90810EB
:1069E00001310BD01B56DB0103F1824303F5004359
:1069F000186A5368D84000F00100704700207047C3
:106A0000388A000038B51822284C4243A51895F959
:106A10000830B3F1FF3F44D00D2905DC002913DA1B
:106A20004B1C40D1084638BD11293CDC0F2908BF5A
:106A3000002102D0102903D10221FFF741FF32E0EB
:106A4000112930D10121F8E7A2566B68D20102F179
:106A500082425C0802F5004213F00100144410D099
:106A600094F8300000F00F0040EA01111344C9B25D
:106A700084F8301093F8402042F0010283F840205F
:106A800011E094F8305005F0F00529431344C9B2E1
:106A900084F8301093F8402042F0010283F840203F
:106AA00038BD184638BD002038BD00BF388A000008
:106AB0007047000008B501F09BF901F0D1FEFFF727
:106AC000F7FF0120FFF7E0FB074800F00DFC064848
:106AD00000F09AFCFDF7F6FEFEF76CF9034B002B75
:106AE000FAD0AFF30080F7E76B0900200000000048
:106AF000014B1860704700BF48000020024B4FF068
:106B0000FF321A60704700BF480000200C4A13682B
:106B1000591C13D0013B136083B972B6094B0A4A62
:106B20001A60BFF34F8F094A094BD16801F4E06145
:106B30000B43D360BFF34F8F00BFFDE7704700BF2B
:106B400048000020FCFF0320EF6916F000ED00E094
:106B50000400FA050160704730B50368C1F34005D1
:106B600001F001011C68090741EA457121431960E0
:106B7000044903685200B1FBF2F2013AD2B21A732F
:106B800030BD00BF006CDC020268136843F00103F3
:106B9000136003681A68D107FCD4DA69D207F9D404
:106BA00070470268136843F0020313600268D369F8
:106BB0009B07FCD470470368D969C1F340010029E1
:106BC000FAD11A6861F341021A607047036899624A
:106BD00003681A7E5207FCD5986AC0B2704700005D
:106BE00002686A498A4230B51FD1694BE0224FF4EE
:106BF00080454FF400444FF480304FF40031C3F827
:106C00008451C3F88441C3F88401C3F8841183F824
:106C10002E2383F82F2383F8302383F831235D60FC
:106C20005C60586059600723A7E05A498A421FD127
:106C3000574BE0224FF480254FF400244FF480108E
:106C40004FF40011C3F88451C3F88441C3F88401A0
:106C5000C3F8841183F8322383F8332383F8342371
:106C600083F835235D605C6058605960082384E0D8
:106C700049498A421FD1464BE0224FF480054FF428
:106C800000044FF080704FF00071C3F88451C3F8D6
:106C90008441C3F88401C3F8841183F8362383F850
:106CA000372383F8382383F839235D605C605860AC
:106CB0005960172361E039498A421FD1344BE022E1
:106CC0004FF080654FF000644FF080504FF000515E
:106CD000C3F88451C3F88441C3F88401C3F8841114
:106CE00083F83A2383F83B2383F83C2383F83D233E
:106CF0005D605C605860596018233EE0B2F1864FD9
:106D00001DD1234BE0224FF080454FF0004401207D
:106D10000221C3F88451C3F88441C3F88801C3F841
:106D2000881183F83E2383F83F2383F8402383F8B8
:106D300041235D605C609860996022231DE01849E2
:106D40008A421AD1124BE022042508241020202167
:106D5000C3F88851C3F88841C3F88801C3F8881183
:106D600083F8422383F8432383F8442383F845239D
:106D70009D609C609860996023230A4A20334121DA
:106D800042F823104323C2F88C3030BD003000405D
:106D900000E100E0003400400020014100400141DA
:106DA00000040043001C0040F8B5044616461F4688
:106DB0000D46FFF7E9FE2046FFF712FF9DF8183059
:106DC00020689B07360543F00C0306F440162D049B
:106DD0001E4305F4403535430560226807F0070778
:106DE00047F4003757602268D3695B07FCD4F8BDCD
:106DF00041EA002070473F20704713B502AB02689C
:106E000003F8011D546819460122A04702B010BDC5
:106E10000069022100F0D6BB0069032100F0E8BB45
:106E200038B50D4604461346006903212A4600F092
:106E3000D5FC08B90123636038BD000010B5054CCE
:106E40002368591C04D10368DB689847206010BD93
:106E5000184610BD9C000020064A1368591C03D137
:106E60000069022100F0AABC4FF0FF311160184602
:106E7000704700BF9C000020037803490233037071
:106E80004222024800F04EBD580000206B0900204D
:106E900010B502784378A12A08D1212B2DD11849A9
:106EA0001848072200F03EFD012010BD212A24D100
:106EB000202B05D112491348072200F0D9FB04E02A
:106EC000222B0FD10E4B8278DA710D4B1A68B2F576
:106ED000966F10D1D87910F001040CD1FA20FFF789
:106EE00007FE0AE0232B08D18378C27843EA022206
:106EF000054B1A6001E0FFF701FE002010BD00BF46
:106F00004C0000206B09002054000020704770479F
:106F1000054B4FF47A7199600449196000220449C5
:106F20005A6019611A767047A0040020C88F0000CB
:106F30006B090020704700008229F0B519D124495F
:106F4000C3B201EB43120324956964F31E75956186
:106F5000204D05EB8010506108330A685B01D118A1
:106F6000087940F080000871D15C64F30611D154B7
:106F7000F0BD61BB164CC2B204EB42134FF0030CE0
:106F80009D686CF31E759D60134D083205EB8010F3
:106F9000586052012068845C012666F30204845420
:106FA0009F696CF31E779F610A4F5F61845C66F393
:106FB0000614845485189A68402060F39B329A60C6
:106FC0009A6861F30D029A606B7903436B71F0BDAF
:106FD00074090020C80500208C070020EFF31083FF
:106FE00003600123436072B67047036813B962B649
:106FF000BFF36F8F704737B505690446684695B98A
:10700000FFF7ECFF019B5A1E23B194F8245013465E
:10701000EDB2F8E768460192FFF7E7FFBDB1256AD8
:10702000E369ED1A13E0FFF7D9FF019B00255A1E13
:1070300023B194F834501346EDB2F8E76846019254
:10704000FFF7D3FF1DB1206BE36AC01A00E02846AA
:1070500003B030BD4368027A1B6803EB421393F818
:10706000092142F0010283F80921027A4368C168CC
:1070700003EB42139A6861F39B329A60027A436889
:1070800003EB42139A686FF30D029A6043681A6823
:10709000037A083302EB43131A7942F040021A7163
:1070A0007047F7B5056904460E4617466846F5B9B8
:1070B000FFF794FF019B013B5A1C06D094F8241063
:1070C0005A1E002937D01346F6E768460193FFF7AA
:1070D0008CFF0025BD42E36932D0226A93422FD251
:1070E000A269591CE161D35C73550135F2E7FFF7E2
:1070F00075FF019B013B591C07D094F83420591EA1
:1071000002F0FF05BAB10B46F5E768460193FFF7B9
:107110006CFF0025BD42E36A26D0226B934240D328
:1071200022E0002284F8242094F83500591EA0B9EA
:107130000B46581CF5D168460193FFF756FF37E020
:10714000226A934234D10023E3610123236168461C
:10715000FFF744FF019B013BEBE784F83520204615
:107160000193FFF777FFF5E7226B934220D10023CD
:10717000E36223616846FFF731FF019B013B5A1C24
:10718000D9D0002284F8342094F83500591E08B96B
:107190000B46F4E784F8352020460193FFF75AFFA9
:1071A000EBE7A26A591CE162D35C73550135B1E784
:1071B000284603B0F0BD436837B5027A1B68083231
:1071C00003EB42120446D379D80755D50123D37176
:1071D00060696268A16808BBC9B202EB41126846E7
:1071E00091686361C1F30D012162A16A516084F865
:1071F0002430FFF7F3FE019B013B591C35D094F876
:107200003420591E02F0FF0022B10193012384F8BB
:10721000353026E084F835000B46EEE7CBB202EBC2
:10722000431368469A68C2F30D022263002262612A
:10723000A2695A60FFF7D2FE019B013B02E084F88D
:10724000355003465A1C10D0012284F8342094F89B
:107250002410581E01F0FF050029F0D0019384F896
:1072600035206846FFF7C1FE06E068460193FFF748
:10727000BCFE2046FFF7EEFE03B030BD37B502ADD1
:10728000002305F8013D0C462846FFF7F5FD23686D
:107290001844206000F07AFE294600F037FE23688B
:1072A000184420609DF8070003B030BD03290BD1BE
:1072B0000C4B1B6893F8642142F0800283F8642130
:1072C000022283F86721704701290AD1054B1B6808
:1072D00093F8242142F0800283F82421022283F8CB
:1072E00027217047740900203F4B70B5012100240D
:1072F00006460E201C70FFF7E3FA0E202146FFF72A
:107300003BFB3A4B3A4D1C700F200121FFF7D8FA96
:1073100021460F20FFF730FB364B37489A6942F081
:1073200001029A611A6942F480621A61334B93F840
:10733000582042F0010283F8582093F83C2002F0D4
:10734000F00283F83C2093F83C2042F0070283F8D7
:107350003C2093F8592042F0010283F8592093F819
:107360003C2002F00F0283F83C2093F83C2042F0CE
:10737000700283F83C20224B4122C3F8A820FEF77C
:1073800077FF284600F016FE284600F02BFE2B68FB
:107390001A7864F3C7121A701A7842F004021A704D
:1073A0001A8964F383021A81164A4FF4803182F8F5
:1073B000504382F8514382F8524382F8534391601C
:1073C0004FF4003191604FF4802191604FF400211F
:1073D00091601A7842F002021A709A789207FCD4EF
:1073E0000123337070BD00BF8807002070090020A2
:1073F0007409002000080040D57D00000080004195
:10740000001C004000E100E0007880B1084B1B68E0
:107410001A896FF300021A811A8B42F008021A834C
:107420001A8B42F004021A83024B00221A60704742
:1074300074090020780A00200E4B9A696FF30D0240
:107440009A611B68022283F8072193F8052142F014
:10745000800283F8052193F807219207FBD54FF0AE
:1074600082439A7A61F306029A729A7A42F0800213
:107470009A727047740900200B7910B50C4653B905
:107480000846FFF705FD20B9094B9A6960F30D0224
:107490009A61012010BD00F079FD214600F066FDE3
:1074A0000028F6D1024B9A6960F30D029A6110BD73
:1074B00074090020832AF8B50D4616D1344AC9B2A2
:1074C00002EB41130324986964F31E7098613148FC
:1074D000126800EB85155D6101F108035B01042072
:1074E000D15C60F30611D154F8BD022A3ED1382098
:1074F00000F00AFD284B03604FF480760023244FF0
:107500000362044680F8243003610363436180F81A
:107510003430C361C36280F8353047608560C6602F
:10752000304601F0C3F9A061304601F0BFF9EBB27B
:1075300007EB4317A062BB68032060F31E73BB60B8
:1075400063681A68237A08335B01D15C60F3020137
:10755000D1546268217AA36902EB4112204653603C
:10756000FFF778FD0D4B43F82540F8BD032A07D1FE
:107570000A4B53F8210048B10368DB689847F8BD0F
:107580000846BDE8F8401146FFF7D6BCF8BD00BF7D
:1075900074090020C8050020F08F00004C0900206D
:1075A00038B505460124064B53F8242032B1214654
:1075B00028460134FFF77EFFE4B2F4E738BD00BF90
:1075C000A000002008B5084B53F8210018B103684B
:1075D0009B68984708BD054BC9B203EB4111886809
:1075E000C0F30D0008BD00BF4C0900207409002045
:1075F00010B50C46FFF7E6FF58B1064BE1B21B6829
:10760000083103EB41114B7943F080034B710223A6
:10761000CB7110BD7409002030B5CAB2124B1348AB
:10762000540103EB8111031908255960996865F32A
:107630009B31996099686FF30D01996003682A4442
:1076400003EB42110D7945F040050D7103EB42113A
:1076500089794D06FAD503EB4211C979C907FAD5E4
:107660000444A068C0B230BD8C070020740900201B
:1076700038B50C4B1B68144693F8042142F04002C5
:1076800083F804210D460021FFF7C6FF0023A04226
:1076900028BF2046A34204D0034A9A5CEA5401332F
:1076A000F8E738BD740900208C07002010B5C9B276
:1076B0000A48490143189A68C2F30D023F2A05D9C6
:1076C000A2F140049A6864F30D0202E09A686FF335
:1076D0000D0201449A608868C0B210BD7409002090
:1076E0002DE9F0471C46304B1B6806460D46914677
:1076F000002B52D02D4B1A781F461AB90F200121AA
:10770000FFF73AF964233B70294B53F8250030B159
:107710000268494655682246A847BDE8F0873046CA
:107720002946FFF74FFFA04204D230462946FFF713
:1077300049FF0446DFF880A029463046FFF7B6FF30
:107740005FFA85F8DAF800301A494FEA48173B44E7
:10775000484693F8082142F0010283F8082101EB22
:107760008511224601F0AAF8DCB130462946FFF720
:1077700029FFB0B9DAF8002008F1080302EB43133F
:107780001744197941F0400119710121D97197F815
:1077900009310B4387F8093103E04FF0FF30BDE8B2
:1077A000F0872046BDE8F087780A002070090020A5
:1077B0004C0900208C0700207409002007B5012324
:1077C0000DF10702FFF78CFF01280CBF9DF80700A1
:1077D0004FF0FF3003B05DF804FB00002DE9F74FD8
:1077E0001D46394B1B680C461746002B67D0B5F574
:1077F000804F64D8354B1A781E461AB90E200121E5
:10780000FFF7BAF8642333704FF00009002D4AD017
:107810002F4B5FFA84F8D3F800A008F1080B0AEBAD
:107820004B129C4692792B4BD20914D02A4A1168EC
:107830002A4AB1FBF2F22A494A431721B2FBF1F27C
:107840000AEB4B11C979890705D4195D69BB511E33
:107850005AB30A46F4E700221A55224BCDF804C069
:10786000402D34BF2E46402603EB8413184639467C
:10787000324601F023F8DDF804C00CEB4818022270
:10788000C8F81400D8F8183066F30D03C8F818309B
:107890000AEB4B13B144DA715A7942F080025A7103
:1078A000AD1B3744B2E748460BE001221A550CEBFA
:1078B0004818D8F818206FF30D02C8F818204FF0B8
:1078C000FF3003B0BDE8F08F780A00208807002061
:1078D00074090020C0050020C800002040420F00AD
:1078E00070110100C805002038B51C460B4B03EB96
:1078F00081130D4618461146224600F0DFFF084A64
:10790000E9B202EB411148618B696FF39B338B61E4
:107910008B6964F30D038B61204638BDC8050020D8
:1079200074090020114B1B782DE9F0410746884669
:107930001546C3B90E4B1E780EB9144608E00D4C1F
:107940000D48268830442E4400F0B8FF26800AE017
:107950004CB108EB0602234638460021FFF7C4FF6E
:107960000644241AF4E72846BDE8F0816A0900209D
:1079700068090020BE050020BD040020F8B5012ADA
:1079800000AF0E46144629D9D31D03F4FC73ADEBAA
:10799000030D084601F008F80130400003236D464E
:1079A0008DF800008DF80130013E0222A2420DD276
:1079B00016F8013F53B1511CC9B2A142AB5404D0D7
:1079C000002302326B54D2B2F0E722460548294622
:1079D000FFF7A8FF003018BF012000E00020BD46DF
:1079E000F8BD00BF6B090020034B044900221A7048
:1079F000034B1A88FFF796BF68090020BD040020DA
:107A0000BE0500202DE9F04F85B0DFF898A004AE48
:107A1000002489464FF001086946054646F8104D96
:107A20008AF80080FFF72AFC09278346214601A82F
:107A30003A4600F04CFF02238DF80530A0238DF864
:107A40000B30FA238DF80C30009B8DF804703B440A
:107A5000B9458DF80980ADF806308DF808B08AF880
:107A6000004005D1284601A94A46FFF75BFF11E017
:107A70000A4B009483F80080094B01A93A46284636
:107A80001C80FFF74FFF28466946FFF7F7FB2846A3
:107A9000FFF7AAFF012005B0BDE8F08F68090020BC
:107AA000BE0500206A09002070B5CE78022E8AB08B
:107AB00005460C4607D12448C988FFF7A3FF0030CC
:107AC00018BF01203DE000F061FA214600F032FAD3
:107AD000002803D0D4BF0020012032E0012E05D1C0
:107AE000E288112A2BD8D2B2184921E0032E28D1DE
:107AF000A37833B91649E2880B78934219D9D2B2E8
:107B000016E0022B02D12846124903E0012B05D1D1
:107B100011492846A279FFF731FF12E0032B10D15B
:107B200000F034FA01A900F013FA284601A9F1E7A0
:107B300002B90A782846FFF7F5FE012001E0034963
:107B4000F7E70AB070BD00BF6B0900200C90000081
:107B5000089000001E9000000090000037B54B78A0
:107B60000C460B2B7CD8DFE803F0061C7B2F7B47F1
:107B70004B7D4E516D73097821B98DF804108DF845
:107B800005100BE000238DF804308DF80530374BDD
:107B90001B78012B08BF8DF80430002101AA0223B5
:107BA00053E08B78012B4FF0000305D18DF80430A2
:107BB0008DF805302E4BEBE72C4A13702D4A916956
:107BC00063F30D0191614BE08D78012D0AD1284BB3
:107BD00002AA00211D7002F8041D2B46FFF784FE47
:107BE000284640E045B9214B01201870214B9A6985
:107BF00065F30D029A6136E0A178FFF71DFC2FE0D6
:107C0000FFF752FF2FE000211B4A1DE00B7813F015
:107C10001F0527D1FFF7C4FC174BA2781A60154A3D
:107C2000136893F8291141F0020183F8291193F8A0
:107C3000491141F0010183F84911936965F30D037E
:107C400093610DE00D4A00210123FFF74DFE07E08F
:107C50000A4B8A781A60074B9A696FF30D029A6192
:107C6000012000E0002003B030BD00BFBC040020B4
:107C70006909002074090020780A00206C0900209E
:107C8000F8B54D4B1C780746002C40F093804B4DC7
:107C90002B689B8B19070ED520462146FFF74CF920
:107CA0002B6893F8092142F0100283F80921444A15
:107CB000146008229A832B689A8B52071DD50422E0
:107CC0009A83404B1A7852B11A78013AD2B21A709C
:107CD0001B7803F0FF0113B90E20FEF74DFE3A4B5F
:107CE0001A7852B11A78013AD2B21A701B7803F09E
:107CF000FF0113B90F20FEF73FFE2B6893F8072111
:107D0000D6062DD5102283F8072193F804212F4998
:107D100042F0400283F804210B7813F0600F3846DC
:107D200002D1FFF71BFF01E0FFF7A6FB28B12B688C
:107D300093F8052142F0800202E020224FF08243B6
:107D400083F805212B6893F80721540608D54022B3
:107D500083F8072193F8082142F0400283F80821B4
:107D60002B681E8C002406F0FE06E1B2EEB146FA46
:107D700004F3D80715D52B6804F1080203EB42136E
:107D8000DA79D20702D4DB799B0706D5104B53F87A
:107D9000240058B103681B6898470123A34026EAD2
:107DA00003060134092CE0D104E0F8BD3846FFF7A2
:107DB0007DFAF2E7F8BD00BF6809002074090020D1
:107DC000780A002088070020700900208C07002016
:107DD0004C0900200148FFF753BF00BF6B0900208A
:107DE000024B4FF082421A60704700BF74090020B6
:107DF0003E4B1A684FF47A73B2FBF3F2013AB2F1D8
:107E0000807F10B520D23A4B5A603A4AE02182F87E
:107E10002310002407219C601960C02382F82330BE
:107E2000354B5A6942F440525A619A6942F4FC4215
:107E30009A61DA6942F06802DA611A6A42F46072A1
:107E400042F003021A6200E0FEE7204600210134FE
:107E5000FEF736FD2A2CF8D1284B4122C3F8202109
:107E600003F1407301211A8861F30A221A80DA882B
:107E7000022161F3C402DA801A6B1107FCD4204A94
:107E80000421D1721A6B5206FCD41D4B4FF4C05220
:107E90009A801B4B1A6B12F00402FAD19A72186B7B
:107EA00010F02000FBD1FEF7EFFA144B4422C3F888
:107EB0002821D3F828215406FBD5124A9368D80705
:107EC000FBD4137843F00103137091680D4BC9077D
:107ED000FBD400225A709A89022161F30B229A8105
:107EE000DA8961F30B22DA8110BD00BFC8000020DF
:107EF00010E000E000ED00E000080040001C004041
:107F0000001C00430024004300F0D0BC70B544685E
:107F10000E4600254CB1236820465B6831469847E1
:107F2000002804DB0544E468F4E7284670BD4FF000
:107F3000FF3070BD38B544680D463CB1236820461B
:107F40009B682946984710B9E468F6E7204638BD93
:107F500038B544680D463CB1236820462946DB68A5
:107F60009847E4680544F6E72C7038BD38B5446896
:107F70000D463CB1236820461B682946984718B92E
:107F8000E468F6E7204638BD012038BD074A13688B
:107F900013F0010107D1064B02201870042058701D
:107FA0005960012313600248704700BF840A002013
:107FB0007C0A002038B50446054654F8043B1A787C
:107FC00042F001021A70204600214FF4807200F046
:107FD0007EFC2B689A78D107FCD49A789207F9D462
:107FE0005C6238BD30B5104B04681968258D01F00E
:107FF0001F021F2A08BF052262F38A152585026821
:10800000C1F34413148D1F2B08BF1D2363F3040415
:1080100014850368C1F382211A8D072908BF032143
:1080200061F30E321A8530BD8400800081F000417A
:1080300002E000BF83F0004330B54FEA41044FEA4D
:10804000430594EA050F08BF90EA020F1FBF54EAE8
:10805000000C55EA020C7FEA645C7FEA655C00F084
:10806000E2804FEA5454D4EB5555B8BF6D420CDD55
:108070002C4480EA020281EA030382EA000083EAD8
:10808000010180EA020281EA0303362D88BF30BD78
:1080900011F0004F4FEA01314FF4801C4CEA1131CE
:1080A00002D0404261EB410113F0004F4FEA03332D
:1080B0004CEA133302D0524263EB430394EA050FB8
:1080C00000F0A780A4F10104D5F1200E0DDB02FA27
:1080D0000EFC22FA05F2801841F1000103FA0EF2BB
:1080E000801843FA05F359410EE0A5F120050EF181
:1080F000200E012A03FA0EFC28BF4CF0020C43FAB2
:1081000005F3C01851EBE37101F0004507D54FF0BE
:10811000000EDCF1000C7EEB00006EEB0101B1F50E
:10812000801F1BD3B1F5001F0CD349085FEA300054
:108130004FEA3C0C04F101044FEA445212F5800F5F
:1081400080F09A80BCF1004F08BF5FEA500C50F1FC
:10815000000041EB045141EA050130BD5FEA4C0CDF
:10816000404141EB010111F4801FA4F10104E9D168
:1081700091F0000F04BF01460020B1FA81F308BF5F
:108180002033A3F10B03B3F120020CDA0C3208DD2B
:1081900002F1140CC2F10C0201FA0CF021FA02F106
:1081A0000CE002F11402D8BFC2F1200C01FA02F176
:1081B00020FA0CFCDCBF41EA0C019040E41AA2BF9B
:1081C00001EB0451294330BD6FEA04041F3C1CDA63
:1081D0000C340EDC04F11404C4F1200220FA04F083
:1081E00001FA02F340EA030021FA04F345EA03012D
:1081F00030BDC4F10C04C4F1200220FA02F001FAEF
:1082000004F340EA0300294630BD21FA04F0294670
:1082100030BD94F0000F83F4801306BF81F4801109
:108220000134013D4EE77FEA645C18BF7FEA655C7C
:1082300029D094EA050F08BF90EA020F05D054EA4E
:10824000000C04BF1946104630BD91EA030F1EBF53
:108250000021002030BD5FEA545C05D14000494157
:1082600028BF41F0004130BD14F580043CBF01F54A
:10827000801130BD01F0004545F0FE4141F4700130
:108280004FF0000030BD7FEA645C1ABF194610460B
:108290007FEA655C1CBF0B46024650EA013406BF0C
:1082A00052EA033591EA030F41F4002130BD00BFCB
:1082B00090F0000F04BF0021704730B54FF4806488
:1082C00004F132044FF000054FF0000150E700BF09
:1082D00090F0000F04BF0021704730B54FF4806468
:1082E00004F1320410F0004548BF40424FF0000155
:1082F0003EE700BF42004FEAE2014FEA31014FEA98
:1083000002701FBF12F07F4393F07F4F81F06051E6
:10831000704792F0000F14BF93F07F4F704730B555
:108320004FF4607401F0004521F0004120E700BFE8
:1083300050EA010208BF704730B54FF000050AE06F
:1083400050EA010208BF704730B511F0004502D570
:10835000404261EB41014FF4806404F132045FEA72
:10836000915C3FF4DCAE4FF003025FEADC0C18BF17
:1083700003325FEADC0C18BF033202EBDC02C2F10D
:10838000200300FA03FC20FA02F001FA03FE40EA9F
:108390000E0021FA02F11444C1E600BF70B54FF09F
:1083A000FF0C4CF4E06C1CEA11541DBF1CEA135581
:1083B00094EA0C0F95EA0C0F00F0DEF82C4481EAE9
:1083C000030621EA4C5123EA4C5350EA013518BF09
:1083D00052EA033541F4801143F4801338D0A0FBF6
:1083E00002CE4FF00005E1FB02E506F00042E0FBA3
:1083F00003E54FF00006E1FB03569CF0000F18BFA9
:108400004EF0010EA4F1FF04B6F5007F64F5407450
:1084100004D25FEA4E0E6D4146EB060642EAC621E3
:1084200041EA55514FEAC52040EA5E504FEACE2E50
:10843000B4F1FD0C88BFBCF5E06F1ED8BEF1004F53
:1084400008BF5FEA500E50F1000041EB045170BDCF
:1084500006F0004646EA010140EA020081EA030113
:10846000B4EB5C04C2BFD4EB0C0541EA045170BD0F
:1084700041F480114FF0000E013C00F3AB8014F189
:10848000360FDEBF002001F0004170BDC4F10004D2
:10849000203C35DA0C341BDC04F11404C4F1200553
:1084A00000FA05F320FA04F001FA05F240EA0200AE
:1084B00001F0004221F0004110EBD37021FA04F6E4
:1084C00042EB06015EEA430E08BF20EAD37070BD9E
:1084D000C4F10C04C4F1200500FA04F320FA05F0FD
:1084E00001FA04F240EA020001F0004110EBD370FF
:1084F00041F100015EEA430E08BF20EAD37070BD6F
:10850000C4F1200500FA05F24EEA020E20FA04F347
:1085100001FA05F243EA020321FA04F001F00041F6
:1085200021FA04F220EA020000EBD3705EEA430E67
:1085300008BF20EAD37070BD94F0000F0FD101F096
:108540000046400041EB010111F4801F08BF013CCF
:10855000F7D041EA060195F0000F18BF704703F00D
:108560000046520043EB030313F4801F08BF013D94
:10857000F7D043EA0603704794EA0C0F0CEA135550
:1085800018BF95EA0C0F0CD050EA410618BF52EA0A
:108590004306D1D181EA030101F000414FF0000010
:1085A00070BD50EA410606BF1046194652EA43061E
:1085B00019D094EA0C0F02D150EA013613D195EA92
:1085C0000C0F05D152EA03361CBF104619460AD1DA
:1085D00081EA030101F0004141F0FE4141F47001E4
:1085E0004FF0000070BD41F0FE4141F4780170BDD4
:1085F00070B54FF0FF0C4CF4E06C1CEA11541DBF39
:108600001CEA135594EA0C0F95EA0C0F00F0A7F83A
:10861000A4EB050481EA030E52EA03354FEA013167
:1086200000F088804FEA03334FF0805545EA13137A
:1086300043EA12634FEA022245EA111545EA106542
:108640004FEA00260EF000419D4208BF964244F1D9
:10865000FD0404F5407402D25B084FEA3202B61AF8
:1086600065EB03055B084FEA32024FF480104FF4CC
:10867000002CB6EB020E75EB030E22BFB61A754640
:1086800040EA0C005B084FEA3202B6EB020E75EBD3
:10869000030E22BFB61A754640EA5C005B084FEA3B
:1086A0003202B6EB020E75EB030E22BFB61A754608
:1086B00040EA9C005B084FEA3202B6EB020E75EB13
:1086C000030E22BFB61A754640EADC0055EA060ED4
:1086D00018D04FEA051545EA16754FEA06164FEA17
:1086E000C30343EA52734FEAC2025FEA1C1CC0D1C3
:1086F00011F4801F0BD141EA00014FF000004FF050
:10870000004CB6E711F4801F04BF01430020B4F110
:10871000FD0C88BFBCF5E06F3FF6AFAEB5EB030CC8
:1087200004BFB6EB020C5FEA500C50F1000041EBC5
:10873000045170BD0EF0004E4EEA113114EB5C0492
:10874000C2BFD4EB0C0541EA045170BD41F4801165
:108750004FF0000E013C90E645EA060E8DE60CEA6D
:10876000135594EA0C0F08BF95EA0C0F3FF43BAF8A
:1087700094EA0C0F0AD150EA01347FF434AF95EA41
:108780000C0F7FF425AF104619462CE795EA0C0F25
:1087900006D152EA03353FF4FDAE1046194622E7F2
:1087A00050EA410618BF52EA43067FF4C5AE50EACC
:1087B00041047FF40DAF52EA43057FF4EBAE12E7BC
:1087C0004FEA4102B2F1E04324BFB3F5001CDCF1F3
:1087D000FE5C0DD901F0004C4FEAC0024CEA50702B
:1087E000B2F1004F40EB830008BF20F0010070475A
:1087F00011F0804F21D113F13872BCBF01F000405D
:10880000704741F480114FEA5252C2F11802C2F18E
:10881000200C10FA0CF320FA02F018BF40F001000F
:108820004FEAC1234FEAD32303FA0CFC40EA0C00C1
:1088300023FA02F34FEA4303CCE77FEA625307D1FE
:1088400050EA01331EBF4FF0FE4040F44000704735
:1088500001F0004040F0FE4040F40000704700BFCF
:1088600070B50E4B0E4DED1AAD1000241E46AC42F5
:1088700004D056F8242090470134F8E700F0B6F809
:10888000084D094BED1AAD1000241E46AC4204D031
:1088900056F8242090470134F8E770BD30010020DD
:1088A000300100204801002030010020024B014629
:1088B000186800F015B800BF2C01002010B5002387
:1088C000934203D0CC5CC4540133F9E710BD024499
:1088D0000346934202D003F8011BFAE770470000F9
:1088E00070B5CD1C25F0030508350C2D38BF0C25BF
:1088F000002D06463FDB8D423DD3214B1C681846B8
:108900002146A1B10B685B1B0ED40B2B03D90B6066
:10891000CC18CD501FE08C4202D1626802601AE090
:108920004B6863600C4616E00C464968E9E7154C55
:1089300023681BB9304600F027F8206029463046EE
:1089400000F022F8431C014615D0C41C24F0030497
:1089500084420AD1256004F10B00231D20F007009A
:10896000C31A0BD05A42E25070BD3046611A00F073
:108970000BF80130EED10C233360002070BD00BF36
:108980008C0A0020880A002038B5064C00230546D2
:108990000846236000F010F8431C02D1236803B19D
:1089A0002B6038BD940A0020034613F8012B002ADF
:1089B000FBD1181A01387047094A136863B118448B
:1089C0006946884202D8106018467047054B0C2251
:1089D0001A604FF0FF307047034B1360EFE700BFA2
:1089E000900A0020940A0020980A0020F8B500BFE1
:1089F000F8BC08BC9E467047F8B500BFF8BC08BC80
:108A00009E467047000000000000000000000000CB
:108A1000054300000B430000D5420000E142000086
:108A2000ED420000B9420000F9420000CB420000D4
:108A30000102030405060F10020000000E000000F2
:108A40001100000004000000FF00FFFFFFFF0E0008
:108A5000020000000D0000001100000004000000F2
:108A6000FF00FFFFFFFF0F00020000000F000000EB
:108A70001100000004000000FF00FFFFFFFF0D00D9
:108A8000020000001A0000001100000004000000B5
:108A9000FF00FFFFFFFF0A000200000018000000B7
:108AA0001100000004000000FF00FFFFFFFF0800AE
:108AB0000200000019000000110000000400000086
:108AC000FF00FFFFFFFF090001000000030000009E
:108AD0001100000004000000FF00FFFFFFFF030083
:108AE000010000000200000011000000040000006E
:108AF000FF00FFFFFFFF0200000000001B0000005E
:108B00001100000004000000FF00FFFFFFFF0B004A
:108B1000020000001C000000110000000400000022
:108B2000FF00FFFFFFFF0C0001000000010000003C
:108B30001100000004000000FF00FFFFFFFF000025
:108B4000010000000000000011000000040000000F
:108B5000FF00FFFFFFFF0100010000001500000003
:108B60001100000004000000FF00FFFFFFFF0500F0
:108B700001000000060000001100000004000000D9
:108B8000FF00FFFFFFFF06000200000003000000DF
:108B90001100000004000000FF00FFFFFFFF0300C2
:108BA00001000000050000001100000004000000AA
:108BB000FF00FFFFFFFF0500000000000A000000AB
:108BC0000E00000004000000FF00FFFFFFFF0A008E
:108BD00002000000070000000E000000040000007A
:108BE000FF00FFFFFFFF0900020000000600000079
:108BF0000E00000004000000FF00FFFFFFFF060062
:108C000000000000100000000E0000000400000042
:108C1000FF00FFFFFFFF0000020000001000000047
:108C20000E00000004000000FF00FFFFFFFF000037
:108C3000010000000A0000000E0000000400000017
:108C4000FF00FFFFFFFF0A00010000000B00000013
:108C50000E00000004000000FF00FFFFFFFF0B00FC
:108C6000020000000A0000000E00000004000000E6
:108C7000FF00FFFFFFFF0A000200000011000000DC
:108C80000E00000004000000FF00FFFFFFFF0100D6
:108C900002000000120000000E00000004000000AE
:108CA000FF00FFFFFFFF03000200000013000000B1
:108CB0000E00000004000000FF00FFFFFFFF0400A3
:108CC00002000000000000000E0000000400000090
:108CD000FF00FFFFFFFF0000000000000B0000008E
:108CE0000E00000004000000FF00FFFFFFFF0B006C
:108CF00002000000020000000E000000040000005E
:108D0000FF00FFFFFFFF0100020000000100000064
:108D10000E00000004000000FF00FFFFFFFF020044
:108D200001000000140000000E000000040000001C
:108D3000FF00FFFFFFFF040000000000080000002C
:108D40000E00000004000000FF00FFFFFFFFFF0017
:108D500000000000090000000E00000004000000F8
:108D6000FF00FFFFFFFF0900010000000C000000F2
:108D70000200000004000000FF00FFFFFFFF0C00E6
:108D8000010000000D0000000200000004000000CF
:108D9000FF00FFFFFFFF0D00010000000E000000BC
:108DA0000E00000004000000FF00FFFFFFFF0E00A8
:108DB000010000000F00000002000000040000009D
:108DC000FF00FFFFFFFF0F00020000000B0000008C
:108DD0000E00000004000000FF00FFFFFFFF0B007B
:108DE000020000000C0000000E0000000400000063
:108DF000FF00FFFFFFFF0C00000000000C00000060
:108E00000E00000004000000FF00FFFFFFFF0C0049
:108E1000000000000D0000000E0000000400000033
:108E2000FF00FFFFFFFF0D00000000000E0000002C
:108E30000E00000004000000FF00FFFFFFFF0E0017
:108E4000000000000F0000000E0000000400000001
:108E5000FF00FFFFFFFF0F000000000011000000F7
:108E60000E00000004000000FF00FFFFFFFF0100F4
:108E700000000000120000000E00000004000000CE
:108E8000FF00FFFFFFFF02000000000013000000D2
:108E90000E00000004000000FF00FFFFFFFF0300C2
:108EA00002000000140000000E000000040000009A
:108EB000FF00FFFFFFFF040002000000150000009C
:108EC0000E00000004000000FF00FFFFFFFF050090
:108ED0000000000016000000030000000400000075
:108EE000FF00FFFFFFFF060000000000170000006A
:108EF0000300000004000000FF00FFFFFFFF070069
:108F0000000000000200000001000000020000005C
:108F10001400FFFFFFFF020000000000050000003A
:108F200001000000020000001500FFFFFFFF050028
:108F30000000000007000000010000000200000027
:108F40000700FFFFFFFF070001000000090000000D
:108F500001000000020000000300FFFFFFFF090006
:108F600001000000080000000100000002000000F5
:108F70000200FFFFFFFF08000000000018000000D3
:108F80000700000000000000FF00FFFFFFFFFF00E0
:108F900000000000190000000700000000000000B1
:108FA000FF00FFFFFFFFFF00190000001900000095
:108FB0001D0000001D000000260000001E00000033
:108FC0000000000000000000FB6D0000216E0000AA
:108FD000116E0000596E00003D6E0000196E000019
:108FE000F76D00000000000000000000000000001D
:108FF000B7710000A3700000F76F0000356F00002C
:1090000048616567657200000403090412010002EB
:10901000EF020140D804E1EE0001010203014861C2
:109020006567657220556E6976657273616C204262
:109030006F617264204D43552D31004300000000E4
:109040000000000000000000000000000000000020
:109050000000000000000000000000000000000010
:109060000000000000000000000000000000000000
:1090700000000000000000000000000000000000F0
:1090800000000000000000000000000000000000E0
:1090900000000000000000000000000000000000D0
:0490A00000000000CC
:1090A400E8030000D0070000006001410080014196
:1090B400000C00420010004200100043001800425F
:1090C400000000000000000000000000000000009C
:1090D4000000000000000000000000000A00000082
:1090E4000C0000000A000000FFFFFFFF00C20100A7
:1090F40000000800FFFFFFFF080B0002020200004F
:1091040009040000010202000005240010010424E7
:109114000206052406000105240101010705810357
:1091240010001009040100020A00000007050202F1
:10913400400000070583024000000000FFFFFFFF1E
:109144000000000083000000020000008200000014
:10915400000000000000000000000000000000000B
:109164000000000000000000000E270700000000BF
:10917400409000006090000080900000000000001B
:109184000000000000000000000000003B90000010
:1091940000000000000000000000000000000000CB
:1091A40000000000000000000000000000000000BB
:1091B40000000000000000000000000000000000AB
:1091C400000000000000000000000000CC000020AF
:1091D40089420000CD510000096100004161000096
:1091E400116F0000E17D00006542000000000000F6
:04000003000061E9AF
:00000001FF
